:1000000012C02AC029C049C027C027C025C024C0AB
:1000100023C022C021C020C01FC01EC01DC01CC0E4
:100020001BC01AC019C011241FBECFEDCDBF10E0F8
:10003000A0E6B0E0ECE5F3E002C005900D92A23638
:10004000B107D9F710E0A2E6B0E001C01D92A537D4
:10005000B107E1F741D180C1D3CF1F920F920FB604
:100060000F9211248F9380916300813029F4809145
:1000700062008F5F80936200809162008F3F39F44D
:1000800081E08093600010926300109262008F9173
:100090000F900FBE0F901F9018951F920F920FB6E2
:1000A0000F9211242F938F939F9320916000213002
:1000B00061F484B595B5909366008093650082E005
:1000C00080936000209363000DC084B595B5909334
:1000D00068008093670081E0809360001092630065
:1000E000809364009F918F912F910F900FBE0F907E
:1000F0001F9018956091620070E080E090E02FEF13
:100100003FEF40E050E00FD16093690070936A00C8
:1001100080936B0090936C002091690030916A008D
:1001200040916B0050916C00809167009091680045
:10013000A0E0B0E0820F931FA41FB51F8093690059
:1001400090936A00A0936B00B0936C0020916900BB
:1001500030916A0040916B0050916C008091650075
:1001600090916600A0E0B0E0281B390B4A0B5B0BB6
:100170002093690030936A0040936B0050936C00A9
:100180008091690090916A00A0916B00B0916C0021
:1001900080936D0090936E00A0936F00B0937000F9
:1001A00080916D0090916E00A0916F00B0917000F1
:1001B000CD01AA27BB2780936D0090936E00A0937A
:1001C0006F00B093700080916D0090916E00A091CF
:1001D0006F00B091700080937400809169009091DD
:1001E0006A00A0916B00B0916C0080936D009093B9
:1001F0006E00A0936F00B093700080916D0090919D
:100200006E00A0916F00B0917000892F9A2FAB2FD4
:10021000BB2780936D0090936E00A0936F00B09306
:10022000700080916D0090916E00A0916F00B09170
:1002300070009070A070B07080936D0090936E000D
:10024000A0936F00B093700080916D0090916E004C
:10025000A0916F00B091700080937300809169004D
:1002600090916A00A0916B00B0916C0080936D003A
:1002700090936E00A0936F00B093700080916D001A
:1002800090916E00A0916F00B09170009070A0707E
:10029000B07080936D0090936E00A0936F00B09348
:1002A000700080916D0090916E00A0916F00B091F0
:1002B0007000809372000895809174008CB95D9BEA
:1002C000FECF809173008CB95D9BFECF8091720050
:1002D0008CB95D9BFECF08951F938FEF87BB82E0A3
:1002E00081BB1DBC1CBC81E48EBD12B881E889B9FC
:1002F0001BB888E08AB98EE083B988E889BF80E4BA
:100300008BBF83E085BF789410EF1CB95D9BFECF57
:10031000809164008823E1F3F894ECDECDDF109245
:1003200064007894F2CFFF27EE27BB27AA2760FF4F
:1003300004C0A20FB31FE41FF51F220F331F441F79
:10034000551F969587957795679589F70097760756
:0C03500071F7CF01BD010895F894FFCFB4
:02035C0001009E
:00000001FF
