:1000000012C02AC029C04BC027C027C025C024C0A9
:1000100023C022C021C020C01FC01EC01DC01CC0E4
:100020001BC01AC019C011241FBECFEDCDBF10E0F8
:10003000A0E6B0E0EAEEF3E002C005900D92A6362D
:10004000B107D9F710E0A6E6B0E001C01D92A237D3
:10005000B107E1F741D1C7C1D3CF1F920F920FB6BD
:100060000F9211248F9380916700813029F4809141
:1000700066008F5F80936600809166008F3F49F431
:1000800081E080936000109267001092660081E228
:100090008CB98F910F900FBE0F901F9018951F92E3
:1000A0000F920FB60F9211242F938F939F9320914D
:1000B0006000213061F484B595B590936A00809317
:1000C000690082E080936000209367000FC084B5D0
:1000D00095B590936C0080936B0081E080936000F5
:1000E0001092670080936800109266009F918F9134
:1000F0002F910F900FBE0F901F9018956091660082
:1001000070E080E090E02FEF3FEF40E050E015D14D
:1001100060936D0070936E0080936F0090937000F9
:1001200020916D0030916E0040916F0050917000F1
:1001300080916B0090916C00A0E0B0E0820F931F63
:10014000A41FB51F80936D0090936E00A0936F0065
:10015000B093700020916D0030916E0040916F005F
:10016000509170008091690090916A00A0E0B0E029
:10017000281B390B4A0B5B0B20936D0030936E00EC
:1001800040936F005093700008958CE38CB95D9B91
:10019000FECF83C080916D0090916E00A0916F00A2
:1001A000B091700020916100309162004091630035
:1001B00050916400821B930BA40BB50B80936D00D0
:1001C00090936E00A0936F00B093700080917100C7
:1001D0008F5F8093710080916D0090916E00A0916F
:1001E0006F00B0917000181619061A061B0694F2DB
:1001F0008091710081508093710080916100909195
:100200006200A0916300B09164000197A105B1055F
:1002100029F4809171008F5F80937100809171004B
:10022000805D80937100809171008CB95D9BFECFE1
:100230001092710020916D0030916E0040916F001E
:10024000509170008091610090916200A0916300D4
:10025000B0916400820F931FA41FB51F80936D009F
:1002600090936E00A0936F00B09370006091610056
:100270007091620080916300909164002AE030E008
:1002800040E050E073D0C901DA018093610090939F
:100290006200A0936300B09364008091610090912C
:1002A0006200A0916300B0916400181619061A0646
:1002B0001B060CF490CF80E896E9A8E9B0E08093A3
:1002C000610090936200A0936300B09364008EE39A
:1002D0008CB95D9BFECF0895CF93DF938FEF87BBE3
:1002E00082E081BB1DBC1CBC81E48EBD12B881E8DC
:1002F00089B91BB888E08AB98EE083B988E889BFDC
:1003000080E48BBF83E085BF789480E48CB95D9BEB
:10031000FECFC4EFD1E0809168008823E1F3F89428
:10032000EDDE33DF80E197E2FE013197F1F70197CF
:10033000D9F7109268007894EECFFF27EE27BB27FD
:10034000AA2760FF04C0A20FB31FE41FF51F220FEE
:10035000331F441F551F969587957795679589F7A5
:100360000097760771F7CF01BD01089597FB092E1D
:1003700005260ED057FD04D014D00AD0001C38F446
:1003800050954095309521953F4F4F4F5F4F0895C1
:10039000F6F790958095709561957F4F8F4F9F4FA1
:1003A0000895A1E21A2EAA1BBB1BFD010DC0AA1FB6
:1003B000BB1FEE1FFF1FA217B307E407F50720F0CE
:1003C000A21BB30BE40BF50B661F771F881F991F49
:1003D0001A9469F760957095809590959B01AC0192
:0A03E000BD01CF010895F894FFCF8E
:0603EA000100CA9A3B006D
:00000001FF
